{
  "transactions": [
    {
      "hash": "0x2f4e7a281284684746e182a647c7b4c1f3a967e5e20b211346af24deccb3cd69",
      "transactionType": "CALL",
      "contractName": null,
      "contractAddress": "0x5fa41d52b044ebd0a9eda3cdbb75eae61c1dd345",
      "function": "addFirstImageChunk(address,uint256,uint256,string)",
      "arguments": [
        "0x7B8140763e5046e920fB752ee1A2FBfb45247675",
        "18",
        "4",
        "PwAAAAwY3BydAAAASwAAABQd3RwdAAAAXwAAAAUclhZWgAAAZAAAAAUZ1hZWgAAAaQAAAAUYlhZWgAAAbgAAAAUclRSQwAAAcwAAAAgY2hhZAAAAewAAAAsYlRSQwAAAcwAAAAgZ1RSQwAAAcwAAAAgbWx1YwAAAAAAAAABAAAADGVuVVMAAAAUAAAAHABEAGkAcwBwAGwAYQB5ACAAUAAzbWx1YwAAAAAAAAABAAAADGVuVVMAAAA0AAAAHABDAG8AcAB5AHIAaQBnAGgAdAAgAEEAcABwAGwAZQAgAEkAbgBjAC4ALAAgADIAMAAyADJYWVogAAAAAAAA9tUAAQAAAADTLFhZWiAAAAAAAACD3wAAPb////+7WFlaIAAAAAAAAEq/AACxNwAACrlYWVogAAAAAAAAKDgAABELAADIuXBhcmEAAAAAAAMAAAACZmYAAPKnAAANWQAAE9AAAApbc2YzMgAAAAAAAQxCAAAF3v//8yYAAAeTAAD9kP//+6L///2jAAAD3AAAwG7/wAARCAwAEAADASIAAhEBAxEB/8QAHwAAAQUBAQEBAQEAAAAAAAAAAAECAwQFBgcICQoL/8QAtRAAAgEDAwIEAwUFBAQAAAF9AQIDAAQRBRIhMUEGE1FhByJxFDKBkaEII0KxwRVS0fAkM2JyggkKFhcYGRolJicoKSo0NTY3ODk6Q0RFRkdISUpTVFVWV1hZWmNkZWZnaGlqc3R1dnd4eXqDhIWGh4iJipKTlJWWl5iZmqKjpKWmp6ipqrKztLW2t7i5usLDxMXGx8jJytLT1NXW19jZ2uHi4+Tl5ufo6erx8vP09fb3+Pn6/8QAHwEAAwEBAQEBAQEBAQAAAAAAAAECAwQFBgcICQoL/8QAtREAAgECBAQDBAcFBAQAAQJ3AAECAxEEBSExBhJBUQdhcRMiMoEIFEKRobHBCSMzUvAVYnLRChYkNOEl8RcYGRomJygpKjU2Nzg5OkNERUZHS"
      ],
      "transaction": {
        "from": "0x3920564949b3e3424eba128d08e2f12d39079df8",
        "to": "0x5fa41d52b044ebd0a9eda3cdbb75eae61c1dd345",
        "gas": "0x106aa9",
        "value": "0x0",
        "input": "0xb35ffa9b0000000000000000000000007b8140763e5046e920fb752ee1a2fbfb4524767500000000000000000000000000000000000000000000000000000000000000120000000000000000000000000000000000000000000000000000000000000004000000000000000000000000000000000000000000000000000000000000008000000000000000000000000000000000000000000000000000000000000003e8507741414141775933427964414141415377414141425164335277644141414158774141414155636c685a57674141415a4141414141555a31685a576741414161514141414155596c685a576741414162674141414155636c5253517741414163774141414167593268685a4141414165774141414173596c52535177414141637741414141675a31525351774141416377414141416762577831597741414141414141414142414141414447567556564d4141414155414141414841424541476b41637742774147774159514235414341415541417a62577831597741414141414141414142414141414447567556564d414141413041414141484142444147384163414235414849416151426e41476741644141674145454163414277414777415a51416741456b416267426a414334414c414167414449414d41417941444a5957566f6741414141414141413974554141514141414144544c46685a5769414141414141414143443377414150622f2f2f2f2b3757466c6149414141414141414145712f414143784e77414143726c5957566f6741414141414141414b4467414142454c4141444975584268636d45414141414141414d41414141435a6d594141504b6e4141414e5751414145394141414170626332597a4d67414141414141415178434141414633762f2f3879594141416554414144396b502f2f2b364c2f2f2f326a41414144334141417747372f7741415243417741454141444153494141684542417845422f38514148774141415155424151454241514541414141414141414141414543417751464267634943516f4c2f3851417452414141674544417749454177554642415141414146394151494441415152425249684d5545474531466842794a7846444b426b61454949304b78775256533066416b4d324a7967676b4b4668635947526f6c4a69636f4b536f304e5459334f446b3651305246526b644953557054564656575631685a576d4e6b5a575a6e61476c7163335231646e643465587144684957476834694a69704b546c4a57576c35695a6d714b6a704b576d7036697071724b7a744c57327437693575734c44784d584778386a4a79744c54314e585731396a5a32754869342b546c3575666f3665727838765030396662332b506e362f38514148774541417745424151454241514542415141414141414141414543417751464267634943516f4c2f385141745245414167454342415144424163464241514141514a3341414543417845454253457842684a425551646863524d694d6f454946454b526f62484243534d7a55764156596e4c524368596b4e4f456c3852635947526f6d4a7967704b6a55324e7a67354f6b4e4552555a4853000000000000000000000000000000000000000000000000",
        "nonce": "0x84",
        "chainId": "0xaa36a7"
      },
      "additionalContracts": [],
      "isFixedGasLimit": false
    }
  ],
  "receipts": [
    {
      "status": "0x1",
      "cumulativeGasUsed": "0xd11620",
      "logs": [],
      "logsBloom": "0x00000000000000000000000000000000000000000000000000000000000000000000000000000000000000000000000000000000000000000000000000000000000000000000000000000000000000000000000000000000000000000000000000000000000000000000000000000000000000000000000000000000000000000000000000000000000000000000000000000000000000000000000000000000000000000000000000000000000000000000000000000000000000000000000000000000000000000000000000000000000000000000000000000000000000000000000000000000000000000000000000000000000000000000000000000000",
      "type": "0x2",
      "transactionHash": "0x2f4e7a281284684746e182a647c7b4c1f3a967e5e20b211346af24deccb3cd69",
      "transactionIndex": "0x75",
      "blockHash": "0xd35298b259ea86517d6c5b9a695072ea5888f2ade2843cd79fba99f20a9586c5",
      "blockNumber": "0x7f0db7",
      "gasUsed": "0xbe2a7",
      "effectiveGasPrice": "0x42deb204",
      "from": "0x3920564949b3e3424eba128d08e2f12d39079df8",
      "to": "0x5fa41d52b044ebd0a9eda3cdbb75eae61c1dd345",
      "contractAddress": null
    }
  ],
  "libraries": [],
  "pending": [],
  "returns": {},
  "timestamp": 1747245937,
  "chain": 11155111,
  "commit": "7e39fb8"
}