{
  "transactions": [
    {
      "hash": "0xe0953c164adbe78c1194efa839ec26c624dca30aae762a96c53d4fadd16cfea7",
      "transactionType": "CALL",
      "contractName": null,
      "contractAddress": "0x5fa41d52b044ebd0a9eda3cdbb75eae61c1dd345",
      "function": "addFirstImageChunk(address,uint256,uint256,string)",
      "arguments": [
        "0x7B8140763e5046e920fB752ee1A2FBfb45247675",
        "18",
        "3",
        "CAgICAgICAgICAgICAgICAgICAgICAgICAgICAgICAgICAgICAgICAgICAgICAgICAgICAgICAgICAgICAgICAgICAgICAgICAgICAgICAgICAgICAgICAgICAgICAgICAgICAgICAgICAgICAgICAgICAgICAgICAgICAgICAgICAgICAgICAgICAgICAgICAgICAgICAgICAgICAgICAgICAgICAgICAgICAgICAgICAgICAgICAgICAgICAgICAgICAgICAgICAgICAgICAgICAgICAgICAgICAgICAgICAgICAgICAgICAgICAgICAgICAgICAgICAgICAgICAgICAgICAgICAgICAgICAgICAgICAgICAgICAgICAgICAgICAgICAgICAgICAgICAgICAgICAgICAgICAgICAgICAgICAgICAgICAgICAgICAgICAgICAgICAgICAgICAgICAgICAgICAgICAgICAgICAgICAgICAgICAgICAgICAgICAgICAgICAgICAgICAgICAgICAgICAgICAgICAgICAgICAgICAgICAgICAgICAgICAgICAgICAgICAgICAgICAgICAgICAgICAgICAgICAgICAgICAgICAgICAgICAgICAgICAgICAgICAgICAgICAgICAgICAgICAgICAgICAgPD94cGFja2V0IGVuZD0idyI/PgD/7QA4UGhvdG9zaG9wIDMuMAA4QklNBAQAAAAAAAA4QklNBCUAAAAAABDUHYzZjwCyBOmACZjs+EJ+/+ICKElDQ19QUk9GSUxFAAEBAAACGGFwcGwEAAAAbW50clJHQiBYWVogB+YAAQABAAAAAAAAYWNzcEFQUEwAAAAAQVBQTAAAAAAAAAAAAAAAAAAAAAAAAPbWAAEAAAAA0y1hcHBs7P2jjjiFR8NttL1PetoYLwAAAAAAAAAAAAAAAAAAAAAAAAAAAAAAAAAAAAAAAAAKZGVzYwAAA"
      ],
      "transaction": {
        "from": "0x3920564949b3e3424eba128d08e2f12d39079df8",
        "to": "0x5fa41d52b044ebd0a9eda3cdbb75eae61c1dd345",
        "gas": "0x106aa9",
        "value": "0x0",
        "input": "0xb35ffa9b0000000000000000000000007b8140763e5046e920fb752ee1a2fbfb4524767500000000000000000000000000000000000000000000000000000000000000120000000000000000000000000000000000000000000000000000000000000003000000000000000000000000000000000000000000000000000000000000008000000000000000000000000000000000000000000000000000000000000003e8434167494341674943416749434167494341674943416749434167494341674943416749434167494341674943416749434167494341674943416749434167494341674943416749434167494341674943416749434167494341674943416749434167494341674943416749434167494341674943416749434167494341674943416749434167494341674943416749434167494341674943416749434167494341674943416749434167494341674943416749434167494341674943416749434167494341674943416749434167494341674943416749434167494341674943416749434167494341674943416749434167494341674943416749434167494341674943416749434167494341674943416749434167494341674943416749434167494341674943416749434167494341674943416749434167494341674943416749434167494341674943416749434167494341674943416749434167494341674943416749434167494341674943416749434167494341674943416749434167494341674943416749434167494341674943416749434167494341674943416749434167494341674943416749434167494341674943416749434167494341674943416749434167494341674943416749434167494341674943416749434167494341674943416749434167494341674943416749434167494341674943416749434167494341674943416749434167494341674943416749434167494341674943416749434167494341674943416749434167494341674943416749434167494341674943416749434167494341674943416749434167494341674943416749434167494341674943416749434167494341674943416749434167494341674943416749434167494341674943416749434167494341674943416749434167494341674943416749434167504439346347466a61325630494756755a4430696479492f5067442f37514134554768766447397a6147397749444d754d414134516b6c4e424151414141414141414134516b6c4e42435541414141414142445548597a5a6a774379424f6d41435a6a732b454a2b2f2b49434b456c4451313951556b394753557846414145424141414347474677634777454141414162573530636c4a485169425957566f67422b594141514142414141414141414159574e7a6345465155457741414141415156425154414141414141414141414141414141414141414141414141506257414145414141414130793168634842733750326a6a6a694652384e74744c315065746f594c7741414141414141414141414141414141414141414141414141414141414141414141414141414141414b5a47567a5977414141000000000000000000000000000000000000000000000000",
        "nonce": "0x83",
        "chainId": "0xaa36a7"
      },
      "additionalContracts": [],
      "isFixedGasLimit": false
    }
  ],
  "receipts": [
    {
      "status": "0x1",
      "cumulativeGasUsed": "0x980057",
      "logs": [],
      "logsBloom": "0x00000000000000000000000000000000000000000000000000000000000000000000000000000000000000000000000000000000000000000000000000000000000000000000000000000000000000000000000000000000000000000000000000000000000000000000000000000000000000000000000000000000000000000000000000000000000000000000000000000000000000000000000000000000000000000000000000000000000000000000000000000000000000000000000000000000000000000000000000000000000000000000000000000000000000000000000000000000000000000000000000000000000000000000000000000000",
      "type": "0x2",
      "transactionHash": "0xe0953c164adbe78c1194efa839ec26c624dca30aae762a96c53d4fadd16cfea7",
      "transactionIndex": "0x57",
      "blockHash": "0x8ad031d3a306e7bc64b6b3ed8134ec558e5a478b431977b4df14b48ed0f9cb3d",
      "blockNumber": "0x7f0db4",
      "gasUsed": "0xbe2a7",
      "effectiveGasPrice": "0x42a57530",
      "from": "0x3920564949b3e3424eba128d08e2f12d39079df8",
      "to": "0x5fa41d52b044ebd0a9eda3cdbb75eae61c1dd345",
      "contractAddress": null
    }
  ],
  "libraries": [],
  "pending": [],
  "returns": {},
  "timestamp": 1747245901,
  "chain": 11155111,
  "commit": "7e39fb8"
}