{
  "transactions": [
    {
      "hash": "0x101044acdbaa8dc7584ed512e4a4a913ce822459e61cf0392b31af04c535675d",
      "transactionType": "CALL",
      "contractName": null,
      "contractAddress": "0x5fa41d52b044ebd0a9eda3cdbb75eae61c1dd345",
      "function": "addFirstImageChunk(address,uint256,uint256,string)",
      "arguments": [
        "0x7B8140763e5046e920fB752ee1A2FBfb45247675",
        "18",
        "0",
        "data:image/jpeg;base64,/9j/4AAQSkZJRgABAQABLAEsAAD/4QCARXhpZgAATU0AKgAAAAgABQEGAAMAAAABAAIAAAEaAAUAAAABAAAASgEbAAUAAAABAAAAUgEoAAMAAAABAAIAAIdpAAQAAAABAAAAWgAAAAAAAAEsAAAAAQAAASwAAAABAAKgAgAEAAAAAQAAEACgAwAEAAAAAQAADAAAAAAA/+EKOGh0dHA6Ly9ucy5hZG9iZS5jb20veGFwLzEuMC8APD94cGFja2V0IGJlZ2luPSLvu78iIGlkPSJXNU0wTXBDZWhpSHpyZVN6TlRjemtjOWQiPz4gPHg6eG1wbWV0YSB4bWxuczp4PSJhZG9iZTpuczptZXRhLyIgeDp4bXB0az0iWE1QIENvcmUgNi4wLjAiPiA8cmRmOlJERiB4bWxuczpyZGY9Imh0dHA6Ly93d3cudzMub3JnLzE5OTkvMDIvMjItcmRmLXN5bnRheC1ucyMiPiA8cmRmOkRlc2NyaXB0aW9uIHJkZjphYm91dD0iIiB4bWxuczpJcHRjNHhtcEV4dD0iaHR0cDovL2lwdGMub3JnL3N0ZC9JcHRjNHhtcEV4dC8yMDA4LTAyLTI5LyIgeG1sbnM6ZGM9Imh0dHA6Ly9wdXJsLm9yZy9kYy9lbGVtZW50cy8xLjEvIiBJcHRjNHhtcEV4dDpBcnR3b3JrVGl0bGU9IkkgQW0gV2hlcmUgWW91IEFyZW4ndCI+IDxkYzp0aXRsZT4gPHJkZjpBbHQ+IDxyZGY6bGkgeG1sOmxhbmc9IngtZGVmYXVsdCI+SSBBbSBXaGVyZSBZb3UgQXJlbid0PC9yZGY6bGk+IDwvcmRmOkFsdD4gPC9kYzp0aXRsZT4gPC9yZGY6RGVzY3JpcHRpb24+IDwvcmRmOlJERj4gPC94OnhtcG1ldGE+ICAgICAgICAgICAgICAgICAgICAgICAgICAgICAgICAgI"
      ],
      "transaction": {
        "from": "0x3920564949b3e3424eba128d08e2f12d39079df8",
        "to": "0x5fa41d52b044ebd0a9eda3cdbb75eae61c1dd345",
        "gas": "0x10c6dc",
        "value": "0x0",
        "input": "0xb35ffa9b0000000000000000000000007b8140763e5046e920fb752ee1a2fbfb4524767500000000000000000000000000000000000000000000000000000000000000120000000000000000000000000000000000000000000000000000000000000000000000000000000000000000000000000000000000000000000000000000008000000000000000000000000000000000000000000000000000000000000003e8646174613a696d6167652f6a7065673b6261736536342c2f396a2f34414151536b5a4a52674142415141424c4145734141442f34514341525868705a674141545530414b674141414167414251454741414d41414141424141494141414561414155414141414241414141536745624141554141414142414141415567456f41414d414141414241414941414964704141514141414142414141415767414141414141414145734141414141514141415377414141414241414b674167414541414141415141414541436741774145414141414151414144414141414141412f2b454b4f476830644841364c793975637935685a4739695a53356a62323076654746774c7a45754d433841504439346347466a6132563049474a6c5a326c7550534c767537386949476c6b50534a584e553077545842445a576870534870795a564e36546c526a656d746a4f575169507a34675048673665473177625756305953423462577875637a703450534a685a4739695a547075637a70745a5852684c7949676544703462584230617a30695745315149454e76636d55674e6934774c6a416950694138636d526d4f6c4a455269423462577875637a70795a475939496d6830644841364c79393364336375647a4d7562334a6e4c7a45354f546b764d4449764d6a4974636d526d4c584e35626e52686543317563794d6950694138636d526d4f6b526c63324e79615842306157397549484a6b5a6a7068596d3931644430694969423462577875637a704a6348526a4e48687463455634644430696148523063446f764c326c7764474d7562334a6e4c334e305a43394a6348526a4e48687463455634644338794d4441344c5441794c5449354c79496765473173626e4d365a474d39496d6830644841364c79397764584a734c6d39795a79396b5979396c624756745a573530637938784c6a45764969424a6348526a4e4868746345563464447042636e523362334a7256476c3062475539496b6b67515730675632686c636d556757573931494546795a57346e6443492b4944786b597a7030615852735a54346750484a6b5a6a70426248512b494478795a47593662476b67654731734f6d7868626d6339496e67745a47566d595856736443492b5353424262534258614756795a53425a6233556751584a6c62696430504339795a47593662476b2b49447776636d526d4f6b4673644434675043396b597a7030615852735a543467504339795a4759365247567a59334a70634852706232342b49447776636d526d4f6c4a45526a3467504339344f6e68746347316c6447452b494341674943416749434167494341674943416749434167494341674943416749434167494341674943416749000000000000000000000000000000000000000000000000",
        "nonce": "0x7f",
        "chainId": "0xaa36a7"
      },
      "additionalContracts": [],
      "isFixedGasLimit": false
    }
  ],
  "receipts": [
    {
      "status": "0x1",
      "cumulativeGasUsed": "0xa437d5",
      "logs": [],
      "logsBloom": "0x00000000000000000000000000000000000000000000000000000000000000000000000000000000000000000000000000000000000000000000000000000000000000000000000000000000000000000000000000000000000000000000000000000000000000000000000000000000000000000000000000000000000000000000000000000000000000000000000000000000000000000000000000000000000000000000000000000000000000000000000000000000000000000000000000000000000000000000000000000000000000000000000000000000000000000000000000000000000000000000000000000000000000000000000000000000",
      "type": "0x2",
      "transactionHash": "0x101044acdbaa8dc7584ed512e4a4a913ce822459e61cf0392b31af04c535675d",
      "transactionIndex": "0x55",
      "blockHash": "0xe96de86fe270026da991915593201996db962b403594b34fd558e4eae3ecd140",
      "blockNumber": "0x7f0d9f",
      "gasUsed": "0xc2567",
      "effectiveGasPrice": "0x41450907",
      "from": "0x3920564949b3e3424eba128d08e2f12d39079df8",
      "to": "0x5fa41d52b044ebd0a9eda3cdbb75eae61c1dd345",
      "contractAddress": null
    }
  ],
  "libraries": [],
  "pending": [],
  "returns": {},
  "timestamp": 1747245636,
  "chain": 11155111,
  "commit": "7e39fb8"
}