{
  "transactions": [
    {
      "hash": "0xf925f0b9945a57db2adeea6062088a173d606bfbfdf261292e5c903892f7393e",
      "transactionType": "CALL",
      "contractName": null,
      "contractAddress": "0x471712732542ea2b3bb0a7da11b865e328d65e99",
      "function": "mint(address)",
      "arguments": [
        "0xF1Da6E2d387e9DA611dAc8a7FC587Eaa4B010013"
      ],
      "transaction": {
        "from": "0x3920564949b3e3424eba128d08e2f12d39079df8",
        "to": "0x471712732542ea2b3bb0a7da11b865e328d65e99",
        "gas": "0x239d3",
        "value": "0x0",
        "input": "0x6a627842000000000000000000000000f1da6e2d387e9da611dac8a7fc587eaa4b010013",
        "nonce": "0xf1",
        "chainId": "0xaa36a7"
      },
      "additionalContracts": [],
      "isFixedGasLimit": false
    },
    {
      "hash": "0x3e19d6490e154fdc15f758e44bf464251ddc299ff51e0fe25f6830f1421f2c1d",
      "transactionType": "CALL",
      "contractName": null,
      "contractAddress": "0x471712732542ea2b3bb0a7da11b865e328d65e99",
      "function": "setTokenId(uint256)",
      "arguments": [
        "19"
      ],
      "transaction": {
        "from": "0x3920564949b3e3424eba128d08e2f12d39079df8",
        "to": "0x471712732542ea2b3bb0a7da11b865e328d65e99",
        "gas": "0x1a832",
        "value": "0x0",
        "input": "0xc929ccf30000000000000000000000000000000000000000000000000000000000000013",
        "nonce": "0xf2",
        "chainId": "0xaa36a7"
      },
      "additionalContracts": [],
      "isFixedGasLimit": false
    }
  ],
  "receipts": [
    {
      "status": "0x1",
      "cumulativeGasUsed": "0x17c7413",
      "logs": [
        {
          "address": "0x11f99a29ee9c18fcc48ff1df4ce931222c6301fc",
          "topics": [
            "0xddf252ad1be2c89b69c2b068fc378daa952ba7f163c4a11628f55a4df523b3ef",
            "0x0000000000000000000000000000000000000000000000000000000000000000",
            "0x000000000000000000000000f1da6e2d387e9da611dac8a7fc587eaa4b010013",
            "0x0000000000000000000000000000000000000000000000000000000000000013"
          ],
          "data": "0x",
          "blockHash": "0xcf19a9753d4578db510880063deb2243524485b0f0a2dca24c868d75b1b99930",
          "blockNumber": "0x7f0f8e",
          "transactionHash": "0xf925f0b9945a57db2adeea6062088a173d606bfbfdf261292e5c903892f7393e",
          "transactionIndex": "0xaa",
          "logIndex": "0x1cd",
          "removed": false
        }
      ],
      "logsBloom": "0x20000000000000000010000000800000000000000000000000000000000000000000000040000000000000002000000000000000000000000000000000000000000000000000000000000008000000000000000000000000000000000000000000000000020000000000000000000900000000000000000000000410000000000000000000000000000000000200000000000000000000000000000000000000000000000000000000000000000000000000000000000000000000000000400000000002000000000000000000000000000000000000000000000000000020000000000000000000000000000000000000000000000000000000000000000000",
      "type": "0x2",
      "transactionHash": "0xf925f0b9945a57db2adeea6062088a173d606bfbfdf261292e5c903892f7393e",
      "transactionIndex": "0xaa",
      "blockHash": "0xcf19a9753d4578db510880063deb2243524485b0f0a2dca24c868d75b1b99930",
      "blockNumber": "0x7f0f8e",
      "gasUsed": "0x19c8c",
      "effectiveGasPrice": "0x71382409",
      "from": "0x3920564949b3e3424eba128d08e2f12d39079df8",
      "to": "0x471712732542ea2b3bb0a7da11b865e328d65e99",
      "contractAddress": null
    },
    {
      "status": "0x1",
      "cumulativeGasUsed": "0x183cf6a",
      "logs": [],
      "logsBloom": "0x00000000000000000000000000000000000000000000000000000000000000000000000000000000000000000000000000000000000000000000000000000000000000000000000000000000000000000000000000000000000000000000000000000000000000000000000000000000000000000000000000000000000000000000000000000000000000000000000000000000000000000000000000000000000000000000000000000000000000000000000000000000000000000000000000000000000000000000000000000000000000000000000000000000000000000000000000000000000000000000000000000000000000000000000000000000",
      "type": "0x2",
      "transactionHash": "0x3e19d6490e154fdc15f758e44bf464251ddc299ff51e0fe25f6830f1421f2c1d",
      "transactionIndex": "0xb0",
      "blockHash": "0xcf19a9753d4578db510880063deb2243524485b0f0a2dca24c868d75b1b99930",
      "blockNumber": "0x7f0f8e",
      "gasUsed": "0x1331d",
      "effectiveGasPrice": "0x71382409",
      "from": "0x3920564949b3e3424eba128d08e2f12d39079df8",
      "to": "0x471712732542ea2b3bb0a7da11b865e328d65e99",
      "contractAddress": null
    }
  ],
  "libraries": [],
  "pending": [],
  "returns": {},
  "timestamp": 1747251986,
  "chain": 11155111,
  "commit": "b6a36a1"
}