{
  "transactions": [
    {
      "hash": "0x369cdaecaba7eaa5065faa456cd818a9b39a9035162a55d71cca05ccd7e88903",
      "transactionType": "CALL",
      "contractName": null,
      "contractAddress": "0x6711476f207a86b6cf6673dc30ea89e7e7be4567",
      "function": "setTokenId(uint256)",
      "arguments": [
        "17"
      ],
      "transaction": {
        "from": "0x3920564949b3e3424eba128d08e2f12d39079df8",
        "to": "0x6711476f207a86b6cf6673dc30ea89e7e7be4567",
        "gas": "0x15f76",
        "value": "0x0",
        "input": "0xc929ccf30000000000000000000000000000000000000000000000000000000000000011",
        "nonce": "0x76",
        "chainId": "0xaa36a7"
      },
      "additionalContracts": [],
      "isFixedGasLimit": false
    }
  ],
  "receipts": [
    {
      "status": "0x1",
      "cumulativeGasUsed": "0x13ff958",
      "logs": [],
      "logsBloom": "0x00000000000000000000000000000000000000000000000000000000000000000000000000000000000000000000000000000000000000000000000000000000000000000000000000000000000000000000000000000000000000000000000000000000000000000000000000000000000000000000000000000000000000000000000000000000000000000000000000000000000000000000000000000000000000000000000000000000000000000000000000000000000000000000000000000000000000000000000000000000000000000000000000000000000000000000000000000000000000000000000000000000000000000000000000000000",
      "type": "0x2",
      "transactionHash": "0x369cdaecaba7eaa5065faa456cd818a9b39a9035162a55d71cca05ccd7e88903",
      "transactionIndex": "0x9a",
      "blockHash": "0x1a93bf16eab3b2d9bf03a4c99c7363079351dba92f9334f7d344a2731d9dabf7",
      "blockNumber": "0x7ed605",
      "gasUsed": "0xf051",
      "effectiveGasPrice": "0x124fe2",
      "from": "0x3920564949b3e3424eba128d08e2f12d39079df8",
      "to": "0x6711476f207a86b6cf6673dc30ea89e7e7be4567",
      "contractAddress": null
    }
  ],
  "libraries": [],
  "pending": [],
  "returns": {},
  "timestamp": 1747068901,
  "chain": 11155111,
  "commit": "8ac50b2"
}