{
  "transactions": [
    {
      "hash": "0x6630cae548529bd13551f0e932178ecbab04b20e1dedea43e99cdb9e11c5b9c0",
      "transactionType": "CALL",
      "contractName": null,
      "contractAddress": "0xb1fe03cc25b2eefb01f441e72f3ccb5df667bd0e",
      "function": "mint(address)",
      "arguments": [
        "0xF1Da6E2d387e9DA611dAc8a7FC587Eaa4B010013"
      ],
      "transaction": {
        "from": "0x3920564949b3e3424eba128d08e2f12d39079df8",
        "to": "0xb1fe03cc25b2eefb01f441e72f3ccb5df667bd0e",
        "gas": "0x239d3",
        "value": "0x0",
        "input": "0x6a627842000000000000000000000000f1da6e2d387e9da611dac8a7fc587eaa4b010013",
        "nonce": "0x65",
        "chainId": "0xaa36a7"
      },
      "additionalContracts": [],
      "isFixedGasLimit": false
    },
    {
      "hash": "0xe2c9f11f371f7dfe4eb50b079de8e0315f064cac1d03207c73d9d8334cd27f47",
      "transactionType": "CALL",
      "contractName": null,
      "contractAddress": "0xb1fe03cc25b2eefb01f441e72f3ccb5df667bd0e",
      "function": "setTokenId(uint256)",
      "arguments": [
        "15"
      ],
      "transaction": {
        "from": "0x3920564949b3e3424eba128d08e2f12d39079df8",
        "to": "0xb1fe03cc25b2eefb01f441e72f3ccb5df667bd0e",
        "gas": "0x10765",
        "value": "0x0",
        "input": "0xc929ccf3000000000000000000000000000000000000000000000000000000000000000f",
        "nonce": "0x66",
        "chainId": "0xaa36a7"
      },
      "additionalContracts": [],
      "isFixedGasLimit": false
    }
  ],
  "receipts": [
    {
      "status": "0x1",
      "cumulativeGasUsed": "0x126e552",
      "logs": [
        {
          "address": "0x11f99a29ee9c18fcc48ff1df4ce931222c6301fc",
          "topics": [
            "0xddf252ad1be2c89b69c2b068fc378daa952ba7f163c4a11628f55a4df523b3ef",
            "0x0000000000000000000000000000000000000000000000000000000000000000",
            "0x000000000000000000000000f1da6e2d387e9da611dac8a7fc587eaa4b010013",
            "0x000000000000000000000000000000000000000000000000000000000000000f"
          ],
          "data": "0x",
          "blockHash": "0x4a2d48ec344af38f2a27b2862b9ea1a8d44e65d3de106610292021c53225382b",
          "blockNumber": "0x7eb73f",
          "transactionHash": "0x6630cae548529bd13551f0e932178ecbab04b20e1dedea43e99cdb9e11c5b9c0",
          "transactionIndex": "0xb8",
          "logIndex": "0x153",
          "removed": false
        }
      ],
      "logsBloom": "0x00000000000000000010000000000000000000000000000000000000000000000000000000000000000000002000000000000000000000000000000000000000000000000000000000000008000000000000000000000000000000000002000000000000020000000000000000000900000000000000000000000410000000000000000000000800000000000200000000000000000000000000000000000000000000000000000000000000000000000000000000000000000000000000400000000002000000000000000000000000000000000000000000000000000020000000000200000000000000000000000000000000000000000000000000000000",
      "type": "0x2",
      "transactionHash": "0x6630cae548529bd13551f0e932178ecbab04b20e1dedea43e99cdb9e11c5b9c0",
      "transactionIndex": "0xb8",
      "blockHash": "0x4a2d48ec344af38f2a27b2862b9ea1a8d44e65d3de106610292021c53225382b",
      "blockNumber": "0x7eb73f",
      "gasUsed": "0x19c8c",
      "effectiveGasPrice": "0xf425f",
      "from": "0x3920564949b3e3424eba128d08e2f12d39079df8",
      "to": "0xb1fe03cc25b2eefb01f441e72f3ccb5df667bd0e",
      "contractAddress": null
    },
    {
      "status": "0x1",
      "cumulativeGasUsed": "0x127996c",
      "logs": [],
      "logsBloom": "0x00000000000000000000000000000000000000000000000000000000000000000000000000000000000000000000000000000000000000000000000000000000000000000000000000000000000000000000000000000000000000000000000000000000000000000000000000000000000000000000000000000000000000000000000000000000000000000000000000000000000000000000000000000000000000000000000000000000000000000000000000000000000000000000000000000000000000000000000000000000000000000000000000000000000000000000000000000000000000000000000000000000000000000000000000000000",
      "type": "0x2",
      "transactionHash": "0xe2c9f11f371f7dfe4eb50b079de8e0315f064cac1d03207c73d9d8334cd27f47",
      "transactionIndex": "0xb9",
      "blockHash": "0x4a2d48ec344af38f2a27b2862b9ea1a8d44e65d3de106610292021c53225382b",
      "blockNumber": "0x7eb73f",
      "gasUsed": "0xb41a",
      "effectiveGasPrice": "0xf425f",
      "from": "0x3920564949b3e3424eba128d08e2f12d39079df8",
      "to": "0xb1fe03cc25b2eefb01f441e72f3ccb5df667bd0e",
      "contractAddress": null
    }
  ],
  "libraries": [],
  "pending": [],
  "returns": {},
  "timestamp": 1746974123,
  "chain": 11155111,
  "commit": "1128ae6"
}