{
  "transactions": [
    {
      "hash": "0xba2f5244205e157a0daf3837925e78df08d4cc315a35170e49ee92212a3f92e8",
      "transactionType": "CALL",
      "contractName": null,
      "contractAddress": "0x7b8140763e5046e920fb752ee1a2fbfb45247675",
      "function": "mint(address)",
      "arguments": [
        "0xF1Da6E2d387e9DA611dAc8a7FC587Eaa4B010013"
      ],
      "transaction": {
        "from": "0x3920564949b3e3424eba128d08e2f12d39079df8",
        "to": "0x7b8140763e5046e920fb752ee1a2fbfb45247675",
        "gas": "0x239d3",
        "value": "0x0",
        "input": "0x6a627842000000000000000000000000f1da6e2d387e9da611dac8a7fc587eaa4b010013",
        "nonce": "0x7d",
        "chainId": "0xaa36a7"
      },
      "additionalContracts": [],
      "isFixedGasLimit": false
    },
    {
      "hash": "0x64d801fced56d8fe5a1cbfc94d0a6e922d631a0a928d864b9fd69a2f835fcffc",
      "transactionType": "CALL",
      "contractName": null,
      "contractAddress": "0x7b8140763e5046e920fb752ee1a2fbfb45247675",
      "function": "setTokenId(uint256)",
      "arguments": [
        "18"
      ],
      "transaction": {
        "from": "0x3920564949b3e3424eba128d08e2f12d39079df8",
        "to": "0x7b8140763e5046e920fb752ee1a2fbfb45247675",
        "gas": "0x1a832",
        "value": "0x0",
        "input": "0xc929ccf30000000000000000000000000000000000000000000000000000000000000012",
        "nonce": "0x7e",
        "chainId": "0xaa36a7"
      },
      "additionalContracts": [],
      "isFixedGasLimit": false
    }
  ],
  "receipts": [
    {
      "status": "0x1",
      "cumulativeGasUsed": "0x1bf208a",
      "logs": [
        {
          "address": "0x11f99a29ee9c18fcc48ff1df4ce931222c6301fc",
          "topics": [
            "0xddf252ad1be2c89b69c2b068fc378daa952ba7f163c4a11628f55a4df523b3ef",
            "0x0000000000000000000000000000000000000000000000000000000000000000",
            "0x000000000000000000000000f1da6e2d387e9da611dac8a7fc587eaa4b010013",
            "0x0000000000000000000000000000000000000000000000000000000000000012"
          ],
          "data": "0x",
          "blockHash": "0xdd825aea253b7513820c5e7840d92c832e8db78df6da5d76f4ac3f0ee25c28cd",
          "blockNumber": "0x7edf14",
          "transactionHash": "0xba2f5244205e157a0daf3837925e78df08d4cc315a35170e49ee92212a3f92e8",
          "transactionIndex": "0xf9",
          "logIndex": "0x1a7",
          "removed": false
        }
      ],
      "logsBloom": "0x00000000000000000010000000000000000000000000000000000000000000000000000000000000000000002000000000000000000000000000000000000000000000000000000000000008000000000000000000000000000000000000000000000000020000000000000000000900000000000000000000000410000000000000000000000000000000000200040000000000000000000000000000000000000000000000000000000000000000000000000000000040000000000000400000000002000000000400000000000000000000000000000000000000000020000000000000000000000000000000000000000000000000000000000000000000",
      "type": "0x2",
      "transactionHash": "0xba2f5244205e157a0daf3837925e78df08d4cc315a35170e49ee92212a3f92e8",
      "transactionIndex": "0xf9",
      "blockHash": "0xdd825aea253b7513820c5e7840d92c832e8db78df6da5d76f4ac3f0ee25c28cd",
      "blockNumber": "0x7edf14",
      "gasUsed": "0x19c8c",
      "effectiveGasPrice": "0xf424b",
      "from": "0x3920564949b3e3424eba128d08e2f12d39079df8",
      "to": "0x7b8140763e5046e920fb752ee1a2fbfb45247675",
      "contractAddress": null
    },
    {
      "status": "0x1",
      "cumulativeGasUsed": "0x1c053a7",
      "logs": [],
      "logsBloom": "0x00000000000000000000000000000000000000000000000000000000000000000000000000000000000000000000000000000000000000000000000000000000000000000000000000000000000000000000000000000000000000000000000000000000000000000000000000000000000000000000000000000000000000000000000000000000000000000000000000000000000000000000000000000000000000000000000000000000000000000000000000000000000000000000000000000000000000000000000000000000000000000000000000000000000000000000000000000000000000000000000000000000000000000000000000000000",
      "type": "0x2",
      "transactionHash": "0x64d801fced56d8fe5a1cbfc94d0a6e922d631a0a928d864b9fd69a2f835fcffc",
      "transactionIndex": "0xfa",
      "blockHash": "0xdd825aea253b7513820c5e7840d92c832e8db78df6da5d76f4ac3f0ee25c28cd",
      "blockNumber": "0x7edf14",
      "gasUsed": "0x1331d",
      "effectiveGasPrice": "0xf424b",
      "from": "0x3920564949b3e3424eba128d08e2f12d39079df8",
      "to": "0x7b8140763e5046e920fb752ee1a2fbfb45247675",
      "contractAddress": null
    }
  ],
  "libraries": [],
  "pending": [],
  "returns": {},
  "timestamp": 1747096837,
  "chain": 11155111,
  "commit": "7e39fb8"
}