{
  "transactions": [
    {
      "hash": "0xcd715b7dabf92556714c828f8fc087c4556f2832e40d736539ce4879bf1bad7f",
      "transactionType": "CALL",
      "contractName": null,
      "contractAddress": "0x947f77832946917b8112280be3d091eaa186f353",
      "function": "mint(address)",
      "arguments": [
        "0xF1Da6E2d387e9DA611dAc8a7FC587Eaa4B010013"
      ],
      "transaction": {
        "from": "0x3920564949b3e3424eba128d08e2f12d39079df8",
        "to": "0x947f77832946917b8112280be3d091eaa186f353",
        "gas": "0x239d3",
        "value": "0x0",
        "input": "0x6a627842000000000000000000000000f1da6e2d387e9da611dac8a7fc587eaa4b010013",
        "nonce": "0x60",
        "chainId": "0xaa36a7"
      },
      "additionalContracts": [],
      "isFixedGasLimit": false
    },
    {
      "hash": "0x88a3a9b18c962102069f81584ec05cc74f396179932bbfc587298525715fb1b1",
      "transactionType": "CALL",
      "contractName": null,
      "contractAddress": "0x947f77832946917b8112280be3d091eaa186f353",
      "function": "setTokenId(uint256)",
      "arguments": [
        "14"
      ],
      "transaction": {
        "from": "0x3920564949b3e3424eba128d08e2f12d39079df8",
        "to": "0x947f77832946917b8112280be3d091eaa186f353",
        "gas": "0x10765",
        "value": "0x0",
        "input": "0xc929ccf3000000000000000000000000000000000000000000000000000000000000000e",
        "nonce": "0x61",
        "chainId": "0xaa36a7"
      },
      "additionalContracts": [],
      "isFixedGasLimit": false
    }
  ],
  "receipts": [
    {
      "status": "0x1",
      "cumulativeGasUsed": "0xa758e5",
      "logs": [
        {
          "address": "0x11f99a29ee9c18fcc48ff1df4ce931222c6301fc",
          "topics": [
            "0xddf252ad1be2c89b69c2b068fc378daa952ba7f163c4a11628f55a4df523b3ef",
            "0x0000000000000000000000000000000000000000000000000000000000000000",
            "0x000000000000000000000000f1da6e2d387e9da611dac8a7fc587eaa4b010013",
            "0x000000000000000000000000000000000000000000000000000000000000000e"
          ],
          "data": "0x",
          "blockHash": "0xd111500bb91fb8be58ec8ef03b762d3be01851f1911bba8be6e1ba69cc5e84ad",
          "blockNumber": "0x7eb670",
          "transactionHash": "0xcd715b7dabf92556714c828f8fc087c4556f2832e40d736539ce4879bf1bad7f",
          "transactionIndex": "0x56",
          "logIndex": "0x89",
          "removed": false
        }
      ],
      "logsBloom": "0x00000000000000000010000000000000000000000000000000000000000000000000000000000000000000002000000000000000000000000000000000000000000000000000000800000008000000000000000000000000000000000000000000000000020000000000000000000900000000000000000000000410000000000000000000000000000000000200000008000000000000000000000000000000000000000000000000000000000000000000000000000020000000000000400000000002000000000000000000000000000000000000000000000000000020000000000000000000000000000000000000000000000000000000000000000000",
      "type": "0x2",
      "transactionHash": "0xcd715b7dabf92556714c828f8fc087c4556f2832e40d736539ce4879bf1bad7f",
      "transactionIndex": "0x56",
      "blockHash": "0xd111500bb91fb8be58ec8ef03b762d3be01851f1911bba8be6e1ba69cc5e84ad",
      "blockNumber": "0x7eb670",
      "gasUsed": "0x19c8c",
      "effectiveGasPrice": "0xf4251",
      "from": "0x3920564949b3e3424eba128d08e2f12d39079df8",
      "to": "0x947f77832946917b8112280be3d091eaa186f353",
      "contractAddress": null
    },
    {
      "status": "0x1",
      "cumulativeGasUsed": "0xa9638a",
      "logs": [],
      "logsBloom": "0x00000000000000000000000000000000000000000000000000000000000000000000000000000000000000000000000000000000000000000000000000000000000000000000000000000000000000000000000000000000000000000000000000000000000000000000000000000000000000000000000000000000000000000000000000000000000000000000000000000000000000000000000000000000000000000000000000000000000000000000000000000000000000000000000000000000000000000000000000000000000000000000000000000000000000000000000000000000000000000000000000000000000000000000000000000000",
      "type": "0x2",
      "transactionHash": "0x88a3a9b18c962102069f81584ec05cc74f396179932bbfc587298525715fb1b1",
      "transactionIndex": "0x5a",
      "blockHash": "0xd111500bb91fb8be58ec8ef03b762d3be01851f1911bba8be6e1ba69cc5e84ad",
      "blockNumber": "0x7eb670",
      "gasUsed": "0xb41a",
      "effectiveGasPrice": "0xf4251",
      "from": "0x3920564949b3e3424eba128d08e2f12d39079df8",
      "to": "0x947f77832946917b8112280be3d091eaa186f353",
      "contractAddress": null
    }
  ],
  "libraries": [],
  "pending": [],
  "returns": {},
  "timestamp": 1746971640,
  "chain": 11155111,
  "commit": "9b847d4"
}