{
  "transactions": [
    {
      "hash": "0x83f8d9ea1b765cf9212d7b1f6091680fe1b767b6839c832d47dc1f4e04d27dad",
      "transactionType": "CALL",
      "contractName": null,
      "contractAddress": "0x1cba1b9be23427c8fdb120e8fdf2cf245d3d4cc6",
      "function": "mint(address)",
      "arguments": [
        "0xF1Da6E2d387e9DA611dAc8a7FC587Eaa4B010013"
      ],
      "transaction": {
        "from": "0x3920564949b3e3424eba128d08e2f12d39079df8",
        "to": "0x1cba1b9be23427c8fdb120e8fdf2cf245d3d4cc6",
        "gas": "0x7391",
        "value": "0x0",
        "input": "0x6a627842000000000000000000000000f1da6e2d387e9da611dac8a7fc587eaa4b010013",
        "nonce": "0x5d",
        "chainId": "0xaa36a7"
      },
      "additionalContracts": [],
      "isFixedGasLimit": false
    },
    {
      "hash": "0x7f674f51288e1a002a2b2218f60c6001c8d52a9bc53203db3fff801b7ff41ba7",
      "transactionType": "CALL",
      "contractName": null,
      "contractAddress": "0x1cba1b9be23427c8fdb120e8fdf2cf245d3d4cc6",
      "function": null,
      "arguments": null,
      "transaction": {
        "from": "0x3920564949b3e3424eba128d08e2f12d39079df8",
        "to": "0x1cba1b9be23427c8fdb120e8fdf2cf245d3d4cc6",
        "gas": "0x7267",
        "value": "0x0",
        "input": "0xa19c8468000000000000000000000000000000000000000000000000000000000000000e",
        "nonce": "0x5e",
        "chainId": "0xaa36a7"
      },
      "additionalContracts": [],
      "isFixedGasLimit": false
    }
  ],
  "receipts": [
    {
      "status": "0x1",
      "cumulativeGasUsed": "0xcbc342",
      "logs": [],
      "logsBloom": "0x00000000000000000000000000000000000000000000000000000000000000000000000000000000000000000000000000000000000000000000000000000000000000000000000000000000000000000000000000000000000000000000000000000000000000000000000000000000000000000000000000000000000000000000000000000000000000000000000000000000000000000000000000000000000000000000000000000000000000000000000000000000000000000000000000000000000000000000000000000000000000000000000000000000000000000000000000000000000000000000000000000000000000000000000000000000",
      "type": "0x2",
      "transactionHash": "0x83f8d9ea1b765cf9212d7b1f6091680fe1b767b6839c832d47dc1f4e04d27dad",
      "transactionIndex": "0x69",
      "blockHash": "0xcead8c16672c3c86caee8c8edf6b0afbfd0204c60f9c87e529f8d598019b53e9",
      "blockNumber": "0x7eb648",
      "gasUsed": "0x5622",
      "effectiveGasPrice": "0xf4252",
      "from": "0x3920564949b3e3424eba128d08e2f12d39079df8",
      "to": "0x1cba1b9be23427c8fdb120e8fdf2cf245d3d4cc6",
      "contractAddress": null
    },
    {
      "status": "0x1",
      "cumulativeGasUsed": "0xd99604",
      "logs": [],
      "logsBloom": "0x00000000000000000000000000000000000000000000000000000000000000000000000000000000000000000000000000000000000000000000000000000000000000000000000000000000000000000000000000000000000000000000000000000000000000000000000000000000000000000000000000000000000000000000000000000000000000000000000000000000000000000000000000000000000000000000000000000000000000000000000000000000000000000000000000000000000000000000000000000000000000000000000000000000000000000000000000000000000000000000000000000000000000000000000000000000",
      "type": "0x2",
      "transactionHash": "0x7f674f51288e1a002a2b2218f60c6001c8d52a9bc53203db3fff801b7ff41ba7",
      "transactionIndex": "0x74",
      "blockHash": "0xcead8c16672c3c86caee8c8edf6b0afbfd0204c60f9c87e529f8d598019b53e9",
      "blockNumber": "0x7eb648",
      "gasUsed": "0x5406",
      "effectiveGasPrice": "0xf4252",
      "from": "0x3920564949b3e3424eba128d08e2f12d39079df8",
      "to": "0x1cba1b9be23427c8fdb120e8fdf2cf245d3d4cc6",
      "contractAddress": null
    }
  ],
  "libraries": [],
  "pending": [],
  "returns": {},
  "timestamp": 1746971160,
  "chain": 11155111,
  "commit": "9b847d4"
}