{
  "transactions": [
    {
      "hash": "0xede48e1dee40800c4a284f111b1ca855245504bc36879efd70d126e7073ef3d0",
      "transactionType": "CALL",
      "contractName": null,
      "contractAddress": "0x374185edbf0ec372b7f59996cdb2ace0aa091da9",
      "function": "mint(address)",
      "arguments": [
        "0xF1Da6E2d387e9DA611dAc8a7FC587Eaa4B010013"
      ],
      "transaction": {
        "from": "0x3920564949b3e3424eba128d08e2f12d39079df8",
        "to": "0x374185edbf0ec372b7f59996cdb2ace0aa091da9",
        "gas": "0x239d3",
        "value": "0x0",
        "input": "0x6a627842000000000000000000000000f1da6e2d387e9da611dac8a7fc587eaa4b010013",
        "nonce": "0x6a",
        "chainId": "0xaa36a7"
      },
      "additionalContracts": [],
      "isFixedGasLimit": false
    },
    {
      "hash": "0x7ae114b2484e9d299d2023842f9287c366039494f629faad207cce99c447150d",
      "transactionType": "CALL",
      "contractName": null,
      "contractAddress": "0x374185edbf0ec372b7f59996cdb2ace0aa091da9",
      "function": "setTokenId(uint256)",
      "arguments": [
        "16"
      ],
      "transaction": {
        "from": "0x3920564949b3e3424eba128d08e2f12d39079df8",
        "to": "0x374185edbf0ec372b7f59996cdb2ace0aa091da9",
        "gas": "0x10765",
        "value": "0x0",
        "input": "0xc929ccf30000000000000000000000000000000000000000000000000000000000000010",
        "nonce": "0x6b",
        "chainId": "0xaa36a7"
      },
      "additionalContracts": [],
      "isFixedGasLimit": false
    }
  ],
  "receipts": [
    {
      "status": "0x1",
      "cumulativeGasUsed": "0x1f46e06",
      "logs": [
        {
          "address": "0x11f99a29ee9c18fcc48ff1df4ce931222c6301fc",
          "topics": [
            "0xddf252ad1be2c89b69c2b068fc378daa952ba7f163c4a11628f55a4df523b3ef",
            "0x0000000000000000000000000000000000000000000000000000000000000000",
            "0x000000000000000000000000f1da6e2d387e9da611dac8a7fc587eaa4b010013",
            "0x0000000000000000000000000000000000000000000000000000000000000010"
          ],
          "data": "0x",
          "blockHash": "0xc5b9bd8d9ecf201147e4db6b63cd0ac155f15239b98a4af243e334b45a4c995d",
          "blockNumber": "0x7ed3e6",
          "transactionHash": "0xede48e1dee40800c4a284f111b1ca855245504bc36879efd70d126e7073ef3d0",
          "transactionIndex": "0x105",
          "logIndex": "0x1e2",
          "removed": false
        }
      ],
      "logsBloom": "0x00000000100000000010000000000000000000000000000000000000000000000000000000000000000000002000000000000000000000000000000000000000000000000000000000000008000000000000000000000000000000000000000000000000020000000000000000000900000000000000000000000410040000000000000000000000000000000200000000000100000000000000000000000000000000000000000000000000000000000000000000000000000000000000400000000002000000000000000000000000000000000000000000000000000020000000000000000000000000000000000000000000000000000000000000000000",
      "type": "0x2",
      "transactionHash": "0xede48e1dee40800c4a284f111b1ca855245504bc36879efd70d126e7073ef3d0",
      "transactionIndex": "0x105",
      "blockHash": "0xc5b9bd8d9ecf201147e4db6b63cd0ac155f15239b98a4af243e334b45a4c995d",
      "blockNumber": "0x7ed3e6",
      "gasUsed": "0x19c8c",
      "effectiveGasPrice": "0x1fa25d",
      "from": "0x3920564949b3e3424eba128d08e2f12d39079df8",
      "to": "0x374185edbf0ec372b7f59996cdb2ace0aa091da9",
      "contractAddress": null
    },
    {
      "status": "0x1",
      "cumulativeGasUsed": "0x1f52220",
      "logs": [],
      "logsBloom": "0x00000000000000000000000000000000000000000000000000000000000000000000000000000000000000000000000000000000000000000000000000000000000000000000000000000000000000000000000000000000000000000000000000000000000000000000000000000000000000000000000000000000000000000000000000000000000000000000000000000000000000000000000000000000000000000000000000000000000000000000000000000000000000000000000000000000000000000000000000000000000000000000000000000000000000000000000000000000000000000000000000000000000000000000000000000000",
      "type": "0x2",
      "transactionHash": "0x7ae114b2484e9d299d2023842f9287c366039494f629faad207cce99c447150d",
      "transactionIndex": "0x106",
      "blockHash": "0xc5b9bd8d9ecf201147e4db6b63cd0ac155f15239b98a4af243e334b45a4c995d",
      "blockNumber": "0x7ed3e6",
      "gasUsed": "0xb41a",
      "effectiveGasPrice": "0x1fa25d",
      "from": "0x3920564949b3e3424eba128d08e2f12d39079df8",
      "to": "0x374185edbf0ec372b7f59996cdb2ace0aa091da9",
      "contractAddress": null
    }
  ],
  "libraries": [],
  "pending": [],
  "returns": {},
  "timestamp": 1747062362,
  "chain": 11155111,
  "commit": "9b47a0b"
}