{
  "transactions": [
    {
      "hash": "0x5d083ace759b4ee31d861611437a5aa18150054dbe5f6b95023e29d689f93010",
      "transactionType": "CALL",
      "contractName": null,
      "contractAddress": "0x6711476f207a86b6cf6673dc30ea89e7e7be4567",
      "function": "mint(address)",
      "arguments": [
        "0xF1Da6E2d387e9DA611dAc8a7FC587Eaa4B010013"
      ],
      "transaction": {
        "from": "0x3920564949b3e3424eba128d08e2f12d39079df8",
        "to": "0x6711476f207a86b6cf6673dc30ea89e7e7be4567",
        "gas": "0x239d3",
        "value": "0x0",
        "input": "0x6a627842000000000000000000000000f1da6e2d387e9da611dac8a7fc587eaa4b010013",
        "nonce": "0x74",
        "chainId": "0xaa36a7"
      },
      "additionalContracts": [],
      "isFixedGasLimit": false
    },
    {
      "hash": "0x70f31a7039aac39fae6165570dd9c3fc519ed2b3ca0f4da3794288a2c70ac76b",
      "transactionType": "CALL",
      "contractName": null,
      "contractAddress": "0x6711476f207a86b6cf6673dc30ea89e7e7be4567",
      "function": "setTokenId(uint256)",
      "arguments": [
        "18"
      ],
      "transaction": {
        "from": "0x3920564949b3e3424eba128d08e2f12d39079df8",
        "to": "0x6711476f207a86b6cf6673dc30ea89e7e7be4567",
        "gas": "0x1a832",
        "value": "0x0",
        "input": "0xc929ccf30000000000000000000000000000000000000000000000000000000000000012",
        "nonce": "0x75",
        "chainId": "0xaa36a7"
      },
      "additionalContracts": [],
      "isFixedGasLimit": false
    }
  ],
  "receipts": [
    {
      "status": "0x1",
      "cumulativeGasUsed": "0x1991a70",
      "logs": [
        {
          "address": "0x11f99a29ee9c18fcc48ff1df4ce931222c6301fc",
          "topics": [
            "0xddf252ad1be2c89b69c2b068fc378daa952ba7f163c4a11628f55a4df523b3ef",
            "0x0000000000000000000000000000000000000000000000000000000000000000",
            "0x000000000000000000000000f1da6e2d387e9da611dac8a7fc587eaa4b010013",
            "0x0000000000000000000000000000000000000000000000000000000000000011"
          ],
          "data": "0x",
          "blockHash": "0x15d11b10d0ff41351876085a4123154f71656a8e622aabb4433d4565cee1beb6",
          "blockNumber": "0x7ed5fe",
          "transactionHash": "0x5d083ace759b4ee31d861611437a5aa18150054dbe5f6b95023e29d689f93010",
          "transactionIndex": "0x98",
          "logIndex": "0x185",
          "removed": false
        }
      ],
      "logsBloom": "0x00000000000000000010000000000000000000000000000000000000000000000000000000000000000000002000000000000000000000000000000000000000000000000000000000000008000000000000000000000000000000000000000000000000020000000000000000000900000000004000000000000410000000000000000000000000000000000200000000000000000000000000000000000000000000000000000000000000000000000000000000000000000000000400400000001002000000000000000000000000000000000000000000000000000020000000000000000000000000000000000000000000000000000000000000000000",
      "type": "0x2",
      "transactionHash": "0x5d083ace759b4ee31d861611437a5aa18150054dbe5f6b95023e29d689f93010",
      "transactionIndex": "0x98",
      "blockHash": "0x15d11b10d0ff41351876085a4123154f71656a8e622aabb4433d4565cee1beb6",
      "blockNumber": "0x7ed5fe",
      "gasUsed": "0x19c8c",
      "effectiveGasPrice": "0x118c9b",
      "from": "0x3920564949b3e3424eba128d08e2f12d39079df8",
      "to": "0x6711476f207a86b6cf6673dc30ea89e7e7be4567",
      "contractAddress": null
    },
    {
      "status": "0x1",
      "cumulativeGasUsed": "0x19a4d8d",
      "logs": [],
      "logsBloom": "0x00000000000000000000000000000000000000000000000000000000000000000000000000000000000000000000000000000000000000000000000000000000000000000000000000000000000000000000000000000000000000000000000000000000000000000000000000000000000000000000000000000000000000000000000000000000000000000000000000000000000000000000000000000000000000000000000000000000000000000000000000000000000000000000000000000000000000000000000000000000000000000000000000000000000000000000000000000000000000000000000000000000000000000000000000000000",
      "type": "0x2",
      "transactionHash": "0x70f31a7039aac39fae6165570dd9c3fc519ed2b3ca0f4da3794288a2c70ac76b",
      "transactionIndex": "0x99",
      "blockHash": "0x15d11b10d0ff41351876085a4123154f71656a8e622aabb4433d4565cee1beb6",
      "blockNumber": "0x7ed5fe",
      "gasUsed": "0x1331d",
      "effectiveGasPrice": "0x118c9b",
      "from": "0x3920564949b3e3424eba128d08e2f12d39079df8",
      "to": "0x6711476f207a86b6cf6673dc30ea89e7e7be4567",
      "contractAddress": null
    }
  ],
  "libraries": [],
  "pending": [],
  "returns": {},
  "timestamp": 1747068818,
  "chain": 11155111,
  "commit": "8ac50b2"
}